:1000000012C02CC02BC02AC029C028C027C026C0BF
:1000100025C024C023C022C021C020C01FC01EC0D4
:100020001DC01CC01BC011241FBECFE5D4E0DEBF25
:10003000CDBF10E0A0E6B0E0E8E3F1E002C005903B
:100040000D92A037B107D9F710E0A0E7B0E001C0EA
:100050001D92A23AB107E1F702D06CC0D1CF8F92C6
:100060009F92AF92BF92CF92DF92EF92FF920F9347
:100070001F93CF93DF9311BA8FEF82BB82E087BBD0
:10008000D090780031E0832E912C22E0C22E80B3F4
:1000900090E1D90E01E810E090E6E92E90E0F92E0B
:1000A000C9E7D0E060E070E0A82EBB24C501062EB1
:1000B00002C0959587950A94E2F788259925817065
:1000C000FB01E059FF4F8083882329F088818F3F0F
:1000D00049F08F5F06C0DD2029F48881882311F064
:1000E00081508883F70180819181A0E0B0E0F80120
:1000F0002081318142815381820F931FA41FB51F3C
:1001000080839183A283B38396FF05C0888188236F
:1001100011F0C8BA01C018BA6F5F7F4F0C5F1F4F54
:1001200082E090E0E80EF91E21966830710509F032
:08013000BDCFADCFF894FFCF65
:10013800EE0E4D0DD90B2F0BF709E008E8077707EE
:00000001FF
